{
    "contractName": "Store",
    "abi": [
        {
            "inputs": [
                {
                    "internalType": "string",
                    "name": "_version",
                    "type": "string"
                }
            ],
            "stateMutability": "nonpayable",
            "type": "constructor"
        },
        {
            "anonymous": false,
            "inputs": [
                {
                    "indexed": false,
                    "internalType": "bytes32",
                    "name": "key",
                    "type": "bytes32"
                },
                {
                    "indexed": false,
                    "internalType": "bytes32",
                    "name": "value",
                    "type": "bytes32"
                }
            ],
            "name": "ItemSet",
            "type": "event"
        },
        {
            "inputs": [
                {
                    "internalType": "bytes32",
                    "name": "",
                    "type": "bytes32"
                }
            ],
            "name": "items",
            "outputs": [
                {
                    "internalType": "bytes32",
                    "name": "",
                    "type": "bytes32"
                }
            ],
            "stateMutability": "view",
            "type": "function"
        },
        {
            "inputs": [
                {
                    "internalType": "bytes32",
                    "name": "key",
                    "type": "bytes32"
                },
                {
                    "internalType": "bytes32",
                    "name": "value",
                    "type": "bytes32"
                }
            ],
            "name": "setItem",
            "outputs": [],
            "stateMutability": "nonpayable",
            "type": "function"
        },
        {
            "inputs": [],
            "name": "version",
            "outputs": [
                {
                    "internalType": "string",
                    "name": "",
                    "type": "string"
                }
            ],
            "stateMutability": "view",
            "type": "function"
        }
    ],
    "bytecode": "608060405234801561001057600080fd5b506040516104f13803806104f183398101604081905261002f91610058565b600061003b82826101aa565b5050610269565b634e487b7160e01b600052604160045260246000fd5b6000602080838503121561006b57600080fd5b82516001600160401b038082111561008257600080fd5b818501915085601f83011261009657600080fd5b8151818111156100a8576100a8610042565b604051601f8201601f19908116603f011681019083821181831017156100d0576100d0610042565b8160405282815288868487010111156100e857600080fd5b600093505b8284101561010a57848401860151818501870152928501926100ed565b600086848301015280965050505050505092915050565b600181811c9082168061013557607f821691505b60208210810361015557634e487b7160e01b600052602260045260246000fd5b50919050565b601f8211156101a557600081815260208120601f850160051c810160208610156101825750805b601f850160051c820191505b818110156101a15782815560010161018e565b5050505b505050565b81516001600160401b038111156101c3576101c3610042565b6101d7816101d18454610121565b8461015b565b602080601f83116001811461020c57600084156101f45750858301515b600019600386901b1c1916600185901b1785556101a1565b600085815260208120601f198616915b8281101561023b5788860151825594840194600190910190840161021c565b50858210156102595787850151600019600388901b60f8161c191681555b5050505050600190811b01905550565b610279806102786000396000f3fe608060405234801561001057600080fd5b50600436106100415760003560e01c806348f343f31461004657806354fd4d5014610079578063f56256c71461008e575b600080fd5b610066610054366004610180565b60016020526000908152604090205481565b6040519081526020015b60405180910390f35b6100816100a3565b6040516100709190610199565b6100a161009c3660046101e7565b610131565b005b600080546100b090610209565b80601f01602080910402602001604051908101604052809291908181526020018280546100dc90610209565b80156101295780601f106100fe57610100808354040283529160200191610129565b820191906000526020600020905b81548152906001019060200180831161010c57829003601f168201915b505050505081565b60008281526001602090815260409182902083905581518481529081018390527fe79e73da417710ae99aa2088575580a60415d359acfad9cdd3382d59c80281d4910160405180910390a15050565b60006020828403121561019257600080fd5b5035919050565b600060208083528351808285015260005b818110156101c6578581018301518582016040015282016101aa565b506000604082860101526040601f19601f8301168501019250505092915050565b600080604083850312156101fa57600080fd5b50508035926020909101359150565b600181811c9082168061021d57607f821691505b60208210810361023d57634e487b7160e01b600052602260045260246000fd5b5091905056fea26469706673582212208eb625fdb83440d977df0155f0aebbec776794a4e12de3e57915f4f1beaafe6364736f6c63430008110033",
    "sourcePath": "e:/CodeDemo/Golang/Ethereum_GolangStudy/goethereumbook/SmartContract/test/test.sol",
    "compiler": {
        "name": "solc",
        "version": "0.8.17+commit.8df45f5f"
    },
    "functionHashes": {
        "items(bytes32)": "48f343f3",
        "setItem(bytes32,bytes32)": "f56256c7",
        "version()": "54fd4d50"
    },
    "gasEstimates": {
        "creation": {
            "codeDepositCost": "126600",
            "executionCost": "infinite",
            "totalCost": "infinite"
        },
        "external": {
            "items(bytes32)": "2405",
            "setItem(bytes32,bytes32)": "23788",
            "version()": "infinite"
        }
    }
}