{
    "contractName": "Ballot",
    "abi": [
        {
            "inputs": [
                {
                    "internalType": "bytes32[]",
                    "name": "proposalName",
                    "type": "bytes32[]"
                }
            ],
            "stateMutability": "nonpayable",
            "type": "constructor"
        },
        {
            "inputs": [],
            "name": "chairperson",
            "outputs": [
                {
                    "internalType": "address",
                    "name": "",
                    "type": "address"
                }
            ],
            "stateMutability": "view",
            "type": "function"
        },
        {
            "inputs": [
                {
                    "internalType": "uint256",
                    "name": "",
                    "type": "uint256"
                }
            ],
            "name": "proposal",
            "outputs": [
                {
                    "internalType": "bytes32",
                    "name": "name",
                    "type": "bytes32"
                },
                {
                    "internalType": "uint256",
                    "name": "voteCount",
                    "type": "uint256"
                }
            ],
            "stateMutability": "view",
            "type": "function"
        },
        {
            "inputs": [
                {
                    "internalType": "address",
                    "name": "",
                    "type": "address"
                }
            ],
            "name": "voters",
            "outputs": [
                {
                    "internalType": "uint256",
                    "name": "weight",
                    "type": "uint256"
                },
                {
                    "internalType": "bool",
                    "name": "voted",
                    "type": "bool"
                },
                {
                    "internalType": "address",
                    "name": "delegate",
                    "type": "address"
                },
                {
                    "internalType": "uint256",
                    "name": "vote",
                    "type": "uint256"
                }
            ],
            "stateMutability": "view",
            "type": "function"
        }
    ],
    "bytecode": "608060405234801561001057600080fd5b506040516103a73803806103a783398101604081905261002f916100e2565b600080546001600160a01b03191633908117825581526001602081905260408220555b81518110156100c5576002604051806040016040528084848151811061007a5761007a61019f565b602090810291909101810151825260019181018290528354808301855560009485529381902083516002909502019384559190910151910155806100bd816101b5565b915050610052565b50506101dc565b634e487b7160e01b600052604160045260246000fd5b600060208083850312156100f557600080fd5b82516001600160401b038082111561010c57600080fd5b818501915085601f83011261012057600080fd5b815181811115610132576101326100cc565b8060051b604051601f19603f83011681018181108582111715610157576101576100cc565b60405291825284820192508381018501918883111561017557600080fd5b938501935b828510156101935784518452938501939285019261017a565b98975050505050505050565b634e487b7160e01b600052603260045260246000fd5b6000600182016101d557634e487b7160e01b600052601160045260246000fd5b5060010190565b6101bc806101eb6000396000f3fe608060405234801561001057600080fd5b50600436106100415760003560e01c80632e4176cf1461004657806330326c1714610076578063a3ec138d1461009e575b600080fd5b600054610059906001600160a01b031681565b6040516001600160a01b0390911681526020015b60405180910390f35b61008961008436600461013d565b61010f565b6040805192835260208301919091520161006d565b6100e06100ac366004610156565b600160208190526000918252604090912080549181015460029091015460ff82169161010090046001600160a01b03169084565b60405161006d949392919093845291151560208401526001600160a01b03166040830152606082015260800190565b6002818154811061011f57600080fd5b60009182526020909120600290910201805460019091015490915082565b60006020828403121561014f57600080fd5b5035919050565b60006020828403121561016857600080fd5b81356001600160a01b038116811461017f57600080fd5b939250505056fea2646970667358221220250e286c22a2a120b9b78a76b8eca3f3798a91c80476596b8900c06ab00949bd64736f6c63430008110033",
    "sourcePath": "e:/CodeDemo/Golang/Ethereum_GolangStudy/Solidity/exampleLearn/vote.sol",
    "compiler": {
        "name": "solc",
        "version": "0.8.17+commit.8df45f5f"
    },
    "functionHashes": {
        "chairperson()": "2e4176cf",
        "proposal(uint256)": "30326c17",
        "voters(address)": "a3ec138d"
    },
    "gasEstimates": {
        "creation": {
            "codeDepositCost": "88800",
            "executionCost": "infinite",
            "totalCost": "infinite"
        },
        "external": {
            "chairperson()": "2304",
            "proposal(uint256)": "6731",
            "voters(address)": "6873"
        }
    }
}